S01C0000467572456C6973654772656574696E67436172642E737265633A
S11300005DC062C061C060C05FC05EC05DC05CC0F6
S11300105BC05AC059C058C057C056C055C054C020
S113002053C052C051C0010101010101010102018B
S113003001010102010101010201010101010101AA
S11300400101010201010101020101010104010197
S113005001010101010102012E312E312E3E343AFB
S11300604600765D463E005D4A3E3A005D2E312EE6
S1130070312E3E343A4600765D463E005D3A3E46B9
S11300802E312E312E3E343A46005D635D635D7D34
S113009069768D00EDBC8D7D00BC957D7600BC5DE0
S11300A0635D635D7D69768D00EDBC8D7D00BC76FE
S11300B07D8D5D635D635D7D69768D0011241FBE5A
S11300C0CFEDCDBF1AD04CC09BCF882359F02FE57C
S11300D03AEE90E0215030409040E1F700C000003B
S11300E08150A9F7089512BE1DBC1CBC86BF70E0E8
S11300F07BBD6ABD842FE9DF08958898909ABA9AE7
S1130100BB9A00E010E0809923C080B7826580BF6D
S113011083B78A6083BF8FB580648FBD8EB58A60D4
S11301208EBD16BE1BBC1ABCC02FD12FFE01E657D4
S1130130FF4F8491FE01E85AFF4F6491FE01EA5D8E
S1130140FF4F4491D0DF2196C233D10579F7DBCF3D
S113015010BE13BE1FBC1EBC16BE1BBC1ABCD3CF24
S1070160F894FFCF3D
S9030000FC
